{
  "_format": "hh-sol-artifact-1",
  "contractName": "CFNC",
  "sourceName": "contracts/CFNC.sol",
  "abi": [
    {
      "inputs": [
        {
          "internalType": "uint256",
          "name": "initialSupply",
          "type": "uint256"
        }
      ],
      "stateMutability": "nonpayable",
      "type": "constructor"
    },
    {
      "inputs": [
        {
          "internalType": "address",
          "name": "spender",
          "type": "address"
        },
        {
          "internalType": "uint256",
          "name": "allowance",
          "type": "uint256"
        },
        {
          "internalType": "uint256",
          "name": "needed",
          "type": "uint256"
        }
      ],
      "name": "ERC20InsufficientAllowance",
      "type": "error"
    },
    {
      "inputs": [
        {
          "internalType": "address",
          "name": "sender",
          "type": "address"
        },
        {
          "internalType": "uint256",
          "name": "balance",
          "type": "uint256"
        },
        {
          "internalType": "uint256",
          "name": "needed",
          "type": "uint256"
        }
      ],
      "name": "ERC20InsufficientBalance",
      "type": "error"
    },
    {
      "inputs": [
        {
          "internalType": "address",
          "name": "approver",
          "type": "address"
        }
      ],
      "name": "ERC20InvalidApprover",
      "type": "error"
    },
    {
      "inputs": [
        {
          "internalType": "address",
          "name": "receiver",
          "type": "address"
        }
      ],
      "name": "ERC20InvalidReceiver",
      "type": "error"
    },
    {
      "inputs": [
        {
          "internalType": "address",
          "name": "sender",
          "type": "address"
        }
      ],
      "name": "ERC20InvalidSender",
      "type": "error"
    },
    {
      "inputs": [
        {
          "internalType": "address",
          "name": "spender",
          "type": "address"
        }
      ],
      "name": "ERC20InvalidSpender",
      "type": "error"
    },
    {
      "inputs": [],
      "name": "EnforcedPause",
      "type": "error"
    },
    {
      "inputs": [],
      "name": "ExpectedPause",
      "type": "error"
    },
    {
      "inputs": [
        {
          "internalType": "address",
          "name": "owner",
          "type": "address"
        }
      ],
      "name": "OwnableInvalidOwner",
      "type": "error"
    },
    {
      "inputs": [
        {
          "internalType": "address",
          "name": "account",
          "type": "address"
        }
      ],
      "name": "OwnableUnauthorizedAccount",
      "type": "error"
    },
    {
      "anonymous": false,
      "inputs": [
        {
          "indexed": true,
          "internalType": "address",
          "name": "owner",
          "type": "address"
        },
        {
          "indexed": true,
          "internalType": "address",
          "name": "spender",
          "type": "address"
        },
        {
          "indexed": false,
          "internalType": "uint256",
          "name": "value",
          "type": "uint256"
        }
      ],
      "name": "Approval",
      "type": "event"
    },
    {
      "anonymous": false,
      "inputs": [
        {
          "indexed": true,
          "internalType": "address",
          "name": "previousOwner",
          "type": "address"
        },
        {
          "indexed": true,
          "internalType": "address",
          "name": "newOwner",
          "type": "address"
        }
      ],
      "name": "OwnershipTransferred",
      "type": "event"
    },
    {
      "anonymous": false,
      "inputs": [
        {
          "indexed": false,
          "internalType": "address",
          "name": "account",
          "type": "address"
        }
      ],
      "name": "Paused",
      "type": "event"
    },
    {
      "anonymous": false,
      "inputs": [
        {
          "indexed": true,
          "internalType": "address",
          "name": "from",
          "type": "address"
        },
        {
          "indexed": true,
          "internalType": "address",
          "name": "to",
          "type": "address"
        },
        {
          "indexed": false,
          "internalType": "uint256",
          "name": "value",
          "type": "uint256"
        }
      ],
      "name": "Transfer",
      "type": "event"
    },
    {
      "anonymous": false,
      "inputs": [
        {
          "indexed": false,
          "internalType": "address",
          "name": "account",
          "type": "address"
        }
      ],
      "name": "Unpaused",
      "type": "event"
    },
    {
      "inputs": [
        {
          "internalType": "address",
          "name": "owner",
          "type": "address"
        },
        {
          "internalType": "address",
          "name": "spender",
          "type": "address"
        }
      ],
      "name": "allowance",
      "outputs": [
        {
          "internalType": "uint256",
          "name": "",
          "type": "uint256"
        }
      ],
      "stateMutability": "view",
      "type": "function"
    },
    {
      "inputs": [
        {
          "internalType": "address",
          "name": "spender",
          "type": "address"
        },
        {
          "internalType": "uint256",
          "name": "value",
          "type": "uint256"
        }
      ],
      "name": "approve",
      "outputs": [
        {
          "internalType": "bool",
          "name": "",
          "type": "bool"
        }
      ],
      "stateMutability": "nonpayable",
      "type": "function"
    },
    {
      "inputs": [
        {
          "internalType": "address",
          "name": "account",
          "type": "address"
        }
      ],
      "name": "balanceOf",
      "outputs": [
        {
          "internalType": "uint256",
          "name": "",
          "type": "uint256"
        }
      ],
      "stateMutability": "view",
      "type": "function"
    },
    {
      "inputs": [
        {
          "internalType": "uint256",
          "name": "value",
          "type": "uint256"
        }
      ],
      "name": "burn",
      "outputs": [],
      "stateMutability": "nonpayable",
      "type": "function"
    },
    {
      "inputs": [
        {
          "internalType": "address",
          "name": "account",
          "type": "address"
        },
        {
          "internalType": "uint256",
          "name": "value",
          "type": "uint256"
        }
      ],
      "name": "burnFrom",
      "outputs": [],
      "stateMutability": "nonpayable",
      "type": "function"
    },
    {
      "inputs": [],
      "name": "decimals",
      "outputs": [
        {
          "internalType": "uint8",
          "name": "",
          "type": "uint8"
        }
      ],
      "stateMutability": "view",
      "type": "function"
    },
    {
      "inputs": [
        {
          "internalType": "address",
          "name": "to",
          "type": "address"
        },
        {
          "internalType": "uint256",
          "name": "amount",
          "type": "uint256"
        }
      ],
      "name": "mint",
      "outputs": [],
      "stateMutability": "nonpayable",
      "type": "function"
    },
    {
      "inputs": [],
      "name": "name",
      "outputs": [
        {
          "internalType": "string",
          "name": "",
          "type": "string"
        }
      ],
      "stateMutability": "view",
      "type": "function"
    },
    {
      "inputs": [],
      "name": "owner",
      "outputs": [
        {
          "internalType": "address",
          "name": "",
          "type": "address"
        }
      ],
      "stateMutability": "view",
      "type": "function"
    },
    {
      "inputs": [],
      "name": "pause",
      "outputs": [],
      "stateMutability": "nonpayable",
      "type": "function"
    },
    {
      "inputs": [],
      "name": "paused",
      "outputs": [
        {
          "internalType": "bool",
          "name": "",
          "type": "bool"
        }
      ],
      "stateMutability": "view",
      "type": "function"
    },
    {
      "inputs": [],
      "name": "renounceOwnership",
      "outputs": [],
      "stateMutability": "nonpayable",
      "type": "function"
    },
    {
      "inputs": [],
      "name": "symbol",
      "outputs": [
        {
          "internalType": "string",
          "name": "",
          "type": "string"
        }
      ],
      "stateMutability": "view",
      "type": "function"
    },
    {
      "inputs": [],
      "name": "totalSupply",
      "outputs": [
        {
          "internalType": "uint256",
          "name": "",
          "type": "uint256"
        }
      ],
      "stateMutability": "view",
      "type": "function"
    },
    {
      "inputs": [
        {
          "internalType": "address",
          "name": "to",
          "type": "address"
        },
        {
          "internalType": "uint256",
          "name": "value",
          "type": "uint256"
        }
      ],
      "name": "transfer",
      "outputs": [
        {
          "internalType": "bool",
          "name": "",
          "type": "bool"
        }
      ],
      "stateMutability": "nonpayable",
      "type": "function"
    },
    {
      "inputs": [
        {
          "internalType": "address",
          "name": "from",
          "type": "address"
        },
        {
          "internalType": "address",
          "name": "to",
          "type": "address"
        },
        {
          "internalType": "uint256",
          "name": "value",
          "type": "uint256"
        }
      ],
      "name": "transferFrom",
      "outputs": [
        {
          "internalType": "bool",
          "name": "",
          "type": "bool"
        }
      ],
      "stateMutability": "nonpayable",
      "type": "function"
    },
    {
      "inputs": [
        {
          "internalType": "address",
          "name": "newOwner",
          "type": "address"
        }
      ],
      "name": "transferOwnership",
      "outputs": [],
      "stateMutability": "nonpayable",
      "type": "function"
    },
    {
      "inputs": [],
      "name": "unpause",
      "outputs": [],
      "stateMutability": "nonpayable",
      "type": "function"
    }
  ],
  "bytecode": "0x60806040523480156200001157600080fd5b506040516200133638038062001336833981016040819052620000349162000313565b336040518060400160405280601281526020017121b434b2b3102334b730b731b29021b7b4b760711b8152506040518060400160405280600381526020016243464360e81b81525081600390816200008d9190620003d3565b5060046200009c8282620003d3565b50506005805460ff19169055506001600160a01b038116620000d957604051631e4fbdf760e01b8152600060048201526024015b60405180910390fd5b620000e481620000f8565b50620000f1338262000152565b50620004c7565b600580546001600160a01b03838116610100818102610100600160a81b031985161790945560405193909204169182907f8be0079c531659141344cd1fd0a4f28419497f9722a3daafe3b4186f6b6457e090600090a35050565b6001600160a01b0382166200017e5760405163ec442f0560e01b815260006004820152602401620000d0565b6200018c6000838362000190565b5050565b6200019d838383620001a2565b505050565b620001ac620001b9565b6200019d838383620001e0565b60055460ff1615620001de5760405163d93c066560e01b815260040160405180910390fd5b565b6001600160a01b0383166200020f5780600260008282546200020391906200049f565b90915550620002839050565b6001600160a01b03831660009081526020819052604090205481811015620002645760405163391434e360e21b81526001600160a01b03851660048201526024810182905260448101839052606401620000d0565b6001600160a01b03841660009081526020819052604090209082900390555b6001600160a01b038216620002a157600280548290039055620002c0565b6001600160a01b03821660009081526020819052604090208054820190555b816001600160a01b0316836001600160a01b03167fddf252ad1be2c89b69c2b068fc378daa952ba7f163c4a11628f55a4df523b3ef836040516200030691815260200190565b60405180910390a3505050565b6000602082840312156200032657600080fd5b5051919050565b634e487b7160e01b600052604160045260246000fd5b600181811c908216806200035857607f821691505b6020821081036200037957634e487b7160e01b600052602260045260246000fd5b50919050565b601f8211156200019d576000816000526020600020601f850160051c81016020861015620003aa5750805b601f850160051c820191505b81811015620003cb57828155600101620003b6565b505050505050565b81516001600160401b03811115620003ef57620003ef6200032d565b620004078162000400845462000343565b846200037f565b602080601f8311600181146200043f5760008415620004265750858301515b600019600386901b1c1916600185901b178555620003cb565b600085815260208120601f198616915b8281101562000470578886015182559484019460019091019084016200044f565b50858210156200048f5787850151600019600388901b60f8161c191681555b5050505050600190811b01905550565b80820180821115620004c157634e487b7160e01b600052601160045260246000fd5b92915050565b610e5f80620004d76000396000f3fe608060405234801561001057600080fd5b50600436106101365760003560e01c806370a08231116100b25780638da5cb5b11610081578063a9059cbb11610066578063a9059cbb1461028f578063dd62ed3e146102a2578063f2fde38b146102e857600080fd5b80638da5cb5b1461024457806395d89b411461028757600080fd5b806370a08231146101eb578063715018a61461022157806379cc6790146102295780638456cb591461023c57600080fd5b8063313ce5671161010957806340c10f19116100ee57806340c10f19146101ba57806342966c68146101cd5780635c975abb146101e057600080fd5b8063313ce567146101a15780633f4ba83a146101b057600080fd5b806306fdde031461013b578063095ea7b31461015957806318160ddd1461017c57806323b872dd1461018e575b600080fd5b6101436102fb565b6040516101509190610c32565b60405180910390f35b61016c610167366004610cc8565b61038d565b6040519015158152602001610150565b6002545b604051908152602001610150565b61016c61019c366004610cf2565b6103a7565b60405160128152602001610150565b6101b86103cb565b005b6101b86101c8366004610cc8565b6103dd565b6101b86101db366004610d2e565b6103f3565b60055460ff1661016c565b6101806101f9366004610d47565b73ffffffffffffffffffffffffffffffffffffffff1660009081526020819052604090205490565b6101b8610400565b6101b8610237366004610cc8565b610412565b6101b8610427565b600554610100900473ffffffffffffffffffffffffffffffffffffffff1660405173ffffffffffffffffffffffffffffffffffffffff9091168152602001610150565b610143610437565b61016c61029d366004610cc8565b610446565b6101806102b0366004610d69565b73ffffffffffffffffffffffffffffffffffffffff918216600090815260016020908152604080832093909416825291909152205490565b6101b86102f6366004610d47565b610454565b60606003805461030a90610d9c565b80601f016020809104026020016040519081016040528092919081815260200182805461033690610d9c565b80156103835780601f1061035857610100808354040283529160200191610383565b820191906000526020600020905b81548152906001019060200180831161036657829003601f168201915b5050505050905090565b60003361039b8185856104ba565b60019150505b92915050565b6000336103b58582856104cc565b6103c085858561059b565b506001949350505050565b6103d3610646565b6103db61069f565b565b6103e5610646565b6103ef828261071c565b5050565b6103fd3382610778565b50565b610408610646565b6103db60006107d4565b61041d8233836104cc565b6103ef8282610778565b61042f610646565b6103db610852565b60606004805461030a90610d9c565b60003361039b81858561059b565b61045c610646565b73ffffffffffffffffffffffffffffffffffffffff81166104b1576040517f1e4fbdf7000000000000000000000000000000000000000000000000000000008152600060048201526024015b60405180910390fd5b6103fd816107d4565b6104c783838360016108ad565b505050565b73ffffffffffffffffffffffffffffffffffffffff8381166000908152600160209081526040808320938616835292905220547fffffffffffffffffffffffffffffffffffffffffffffffffffffffffffffffff81146105955781811015610586576040517ffb8f41b200000000000000000000000000000000000000000000000000000000815273ffffffffffffffffffffffffffffffffffffffff8416600482015260248101829052604481018390526064016104a8565b610595848484840360006108ad565b50505050565b73ffffffffffffffffffffffffffffffffffffffff83166105eb576040517f96c6fd1e000000000000000000000000000000000000000000000000000000008152600060048201526024016104a8565b73ffffffffffffffffffffffffffffffffffffffff821661063b576040517fec442f05000000000000000000000000000000000000000000000000000000008152600060048201526024016104a8565b6104c78383836109f5565b60055473ffffffffffffffffffffffffffffffffffffffff6101009091041633146103db576040517f118cdaa70000000000000000000000000000000000000000000000000000000081523360048201526024016104a8565b6106a7610a00565b600580547fffffffffffffffffffffffffffffffffffffffffffffffffffffffffffffff001690557f5db9ee0a495bf2e6ff9c91a7834c1ba4fdd244a5e8aa4e537bd38aeae4b073aa335b60405173ffffffffffffffffffffffffffffffffffffffff909116815260200160405180910390a1565b73ffffffffffffffffffffffffffffffffffffffff821661076c576040517fec442f05000000000000000000000000000000000000000000000000000000008152600060048201526024016104a8565b6103ef600083836109f5565b73ffffffffffffffffffffffffffffffffffffffff82166107c8576040517f96c6fd1e000000000000000000000000000000000000000000000000000000008152600060048201526024016104a8565b6103ef826000836109f5565b6005805473ffffffffffffffffffffffffffffffffffffffff8381166101008181027fffffffffffffffffffffff0000000000000000000000000000000000000000ff85161790945560405193909204169182907f8be0079c531659141344cd1fd0a4f28419497f9722a3daafe3b4186f6b6457e090600090a35050565b61085a610a3c565b600580547fffffffffffffffffffffffffffffffffffffffffffffffffffffffffffffff001660011790557f62e78cea01bee320cd4e420270b5ea74000d11b0c9f74754ebdbfc544b05a2586106f23390565b73ffffffffffffffffffffffffffffffffffffffff84166108fd576040517fe602df05000000000000000000000000000000000000000000000000000000008152600060048201526024016104a8565b73ffffffffffffffffffffffffffffffffffffffff831661094d576040517f94280d62000000000000000000000000000000000000000000000000000000008152600060048201526024016104a8565b73ffffffffffffffffffffffffffffffffffffffff80851660009081526001602090815260408083209387168352929052208290558015610595578273ffffffffffffffffffffffffffffffffffffffff168473ffffffffffffffffffffffffffffffffffffffff167f8c5be1e5ebec7d5bd14f71427d1e84f3dd0314c0f7b2291e5b200ac8c7c3b925846040516109e791815260200190565b60405180910390a350505050565b6104c7838383610a79565b60055460ff166103db576040517f8dfc202b00000000000000000000000000000000000000000000000000000000815260040160405180910390fd5b60055460ff16156103db576040517fd93c066500000000000000000000000000000000000000000000000000000000815260040160405180910390fd5b610a81610a3c565b6104c783838373ffffffffffffffffffffffffffffffffffffffff8316610abf578060026000828254610ab49190610def565b90915550610b719050565b73ffffffffffffffffffffffffffffffffffffffff831660009081526020819052604090205481811015610b45576040517fe450d38c00000000000000000000000000000000000000000000000000000000815273ffffffffffffffffffffffffffffffffffffffff8516600482015260248101829052604481018390526064016104a8565b73ffffffffffffffffffffffffffffffffffffffff841660009081526020819052604090209082900390555b73ffffffffffffffffffffffffffffffffffffffff8216610b9a57600280548290039055610bc6565b73ffffffffffffffffffffffffffffffffffffffff821660009081526020819052604090208054820190555b8173ffffffffffffffffffffffffffffffffffffffff168373ffffffffffffffffffffffffffffffffffffffff167fddf252ad1be2c89b69c2b068fc378daa952ba7f163c4a11628f55a4df523b3ef83604051610c2591815260200190565b60405180910390a3505050565b60006020808352835180602085015260005b81811015610c6057858101830151858201604001528201610c44565b5060006040828601015260407fffffffffffffffffffffffffffffffffffffffffffffffffffffffffffffffe0601f8301168501019250505092915050565b803573ffffffffffffffffffffffffffffffffffffffff81168114610cc357600080fd5b919050565b60008060408385031215610cdb57600080fd5b610ce483610c9f565b946020939093013593505050565b600080600060608486031215610d0757600080fd5b610d1084610c9f565b9250610d1e60208501610c9f565b9150604084013590509250925092565b600060208284031215610d4057600080fd5b5035919050565b600060208284031215610d5957600080fd5b610d6282610c9f565b9392505050565b60008060408385031215610d7c57600080fd5b610d8583610c9f565b9150610d9360208401610c9f565b90509250929050565b600181811c90821680610db057607f821691505b602082108103610de9577f4e487b7100000000000000000000000000000000000000000000000000000000600052602260045260246000fd5b50919050565b808201808211156103a1577f4e487b7100000000000000000000000000000000000000000000000000000000600052601160045260246000fdfea2646970667358221220ecf4aeaebb029bde3bf3bb5bdf70671bfe36949579d97153347d7b840cfc588b64736f6c63430008180033",
  "linkReferences": {},
  "deployedLinkReferences": {}
}