{
  "_format": "hh-sol-artifact-1",
  "contractName": "UniswapV2Factory",
  "sourceName": "contracts/UniswapV2Factory.sol",
  "abi": [
    {
      "inputs": [
        {
          "internalType": "address",
          "name": "_feeToSetter",
          "type": "address"
        },
        {
          "internalType": "address",
          "name": "_feeReceiver",
          "type": "address"
        }
      ],
      "stateMutability": "nonpayable",
      "type": "constructor"
    },
    {
      "anonymous": false,
      "inputs": [
        {
          "indexed": true,
          "internalType": "address",
          "name": "token0",
          "type": "address"
        },
        {
          "indexed": true,
          "internalType": "address",
          "name": "token1",
          "type": "address"
        },
        {
          "indexed": false,
          "internalType": "address",
          "name": "pair",
          "type": "address"
        },
        {
          "indexed": false,
          "internalType": "uint256",
          "name": "",
          "type": "uint256"
        }
      ],
      "name": "PairCreated",
      "type": "event"
    },
    {
      "inputs": [],
      "name": "INIT_CODE_HASH",
      "outputs": [
        {
          "internalType": "bytes32",
          "name": "",
          "type": "bytes32"
        }
      ],
      "stateMutability": "view",
      "type": "function"
    },
    {
      "inputs": [
        {
          "internalType": "address",
          "name": "account",
          "type": "address"
        }
      ],
      "name": "addAdmin",
      "outputs": [],
      "stateMutability": "nonpayable",
      "type": "function"
    },
    {
      "inputs": [],
      "name": "addLiquidityFeeBP",
      "outputs": [
        {
          "internalType": "uint256",
          "name": "",
          "type": "uint256"
        }
      ],
      "stateMutability": "view",
      "type": "function"
    },
    {
      "inputs": [
        {
          "internalType": "uint256",
          "name": "",
          "type": "uint256"
        }
      ],
      "name": "allPairs",
      "outputs": [
        {
          "internalType": "address",
          "name": "",
          "type": "address"
        }
      ],
      "stateMutability": "view",
      "type": "function"
    },
    {
      "inputs": [],
      "name": "allPairsLength",
      "outputs": [
        {
          "internalType": "uint256",
          "name": "",
          "type": "uint256"
        }
      ],
      "stateMutability": "view",
      "type": "function"
    },
    {
      "inputs": [
        {
          "internalType": "address",
          "name": "tokenA",
          "type": "address"
        },
        {
          "internalType": "address",
          "name": "tokenB",
          "type": "address"
        }
      ],
      "name": "createPair",
      "outputs": [
        {
          "internalType": "address",
          "name": "pair",
          "type": "address"
        }
      ],
      "stateMutability": "nonpayable",
      "type": "function"
    },
    {
      "inputs": [],
      "name": "feeReceiver",
      "outputs": [
        {
          "internalType": "address",
          "name": "",
          "type": "address"
        }
      ],
      "stateMutability": "view",
      "type": "function"
    },
    {
      "inputs": [],
      "name": "feeTo",
      "outputs": [
        {
          "internalType": "address",
          "name": "",
          "type": "address"
        }
      ],
      "stateMutability": "view",
      "type": "function"
    },
    {
      "inputs": [],
      "name": "feeToSetter",
      "outputs": [
        {
          "internalType": "address",
          "name": "",
          "type": "address"
        }
      ],
      "stateMutability": "view",
      "type": "function"
    },
    {
      "inputs": [
        {
          "internalType": "address",
          "name": "",
          "type": "address"
        },
        {
          "internalType": "address",
          "name": "",
          "type": "address"
        }
      ],
      "name": "getPair",
      "outputs": [
        {
          "internalType": "address",
          "name": "",
          "type": "address"
        }
      ],
      "stateMutability": "view",
      "type": "function"
    },
    {
      "inputs": [
        {
          "internalType": "address",
          "name": "pool",
          "type": "address"
        }
      ],
      "name": "lock",
      "outputs": [],
      "stateMutability": "nonpayable",
      "type": "function"
    },
    {
      "inputs": [
        {
          "internalType": "address",
          "name": "account",
          "type": "address"
        }
      ],
      "name": "removeAdmin",
      "outputs": [],
      "stateMutability": "nonpayable",
      "type": "function"
    },
    {
      "inputs": [],
      "name": "removeLiquidityFeeBP",
      "outputs": [
        {
          "internalType": "uint256",
          "name": "",
          "type": "uint256"
        }
      ],
      "stateMutability": "view",
      "type": "function"
    },
    {
      "inputs": [
        {
          "internalType": "uint256",
          "name": "value",
          "type": "uint256"
        }
      ],
      "name": "setAddLiquidityFeeBP",
      "outputs": [],
      "stateMutability": "nonpayable",
      "type": "function"
    },
    {
      "inputs": [
        {
          "internalType": "address",
          "name": "_feeReceiver",
          "type": "address"
        }
      ],
      "name": "setFeeReceiver",
      "outputs": [],
      "stateMutability": "nonpayable",
      "type": "function"
    },
    {
      "inputs": [
        {
          "internalType": "address",
          "name": "_feeTo",
          "type": "address"
        }
      ],
      "name": "setFeeTo",
      "outputs": [],
      "stateMutability": "nonpayable",
      "type": "function"
    },
    {
      "inputs": [
        {
          "internalType": "address",
          "name": "_feeToSetter",
          "type": "address"
        }
      ],
      "name": "setFeeToSetter",
      "outputs": [],
      "stateMutability": "nonpayable",
      "type": "function"
    },
    {
      "inputs": [
        {
          "internalType": "uint256",
          "name": "value",
          "type": "uint256"
        }
      ],
      "name": "setRemoveLiquidityFeeBP",
      "outputs": [],
      "stateMutability": "nonpayable",
      "type": "function"
    },
    {
      "inputs": [
        {
          "internalType": "uint256",
          "name": "value",
          "type": "uint256"
        }
      ],
      "name": "setSwapFeeBP",
      "outputs": [],
      "stateMutability": "nonpayable",
      "type": "function"
    },
    {
      "inputs": [
        {
          "internalType": "uint256",
          "name": "value",
          "type": "uint256"
        }
      ],
      "name": "setSwapLimitBP",
      "outputs": [],
      "stateMutability": "nonpayable",
      "type": "function"
    },
    {
      "inputs": [],
      "name": "swapFeeBP",
      "outputs": [
        {
          "internalType": "uint256",
          "name": "",
          "type": "uint256"
        }
      ],
      "stateMutability": "view",
      "type": "function"
    },
    {
      "inputs": [],
      "name": "swapLimitBP",
      "outputs": [
        {
          "internalType": "uint256",
          "name": "",
          "type": "uint256"
        }
      ],
      "stateMutability": "view",
      "type": "function"
    },
    {
      "inputs": [
        {
          "internalType": "address",
          "name": "pool",
          "type": "address"
        }
      ],
      "name": "unlock",
      "outputs": [],
      "stateMutability": "nonpayable",
      "type": "function"
    }
  ],
  "bytecode": "0x608060405234801561001057600080fd5b506040516200466d3803806200466d8339818101604052604081101561003557600080fd5b508051602091820151600280546001600160a01b038085166001600160a01b03199283161790925560098054928416929091169190911790556101f4600581905560068190556007819055600855909161009b90600090339061115e6100a2821b17901c565b5050610194565b6100b582826001600160e01b0361012c16565b15610107576040805162461bcd60e51b815260206004820152601f60248201527f526f6c65733a206163636f756e7420616c72656164792068617320726f6c6500604482015290519081900360640190fd5b6001600160a01b0316600090815260209190915260409020805460ff19166001179055565b60006001600160a01b0382166101745760405162461bcd60e51b81526004018080602001828103825260228152602001806200464b6022913960400191505060405180910390fd5b506001600160a01b03166000908152602091909152604090205460ff1690565b6144a780620001a46000396000f3fe608060405234801561001057600080fd5b506004361061018d5760003560e01c806370480275116100e3578063c9c653961161008c578063efdcd97411610066578063efdcd974146103ea578063f435f5a71461041d578063f46901ed146104505761018d565b8063c9c6539614610357578063de0716ac14610392578063e6a43905146103af5761018d565b8063a2e74af6116100bd578063a2e74af6146102ff578063a678f7eb14610332578063b3f006741461034f5761018d565b806370480275146102bc57806378d2429a146102ef5780637c52a17b146102f75761018d565b80632990d30311610145578063574f2ba31161011f578063574f2ba31461028f57806368bfc417146102975780636efb21231461029f5761018d565b80632990d303146102375780632f6c493c146102545780633746d215146102875761018d565b80631785f53c116101765780631785f53c146101cb5780631e3dd18b14610200578063257671f51461021d5761018d565b8063017e7e5814610192578063094b7415146101c3575b600080fd5b61019a610483565b6040805173ffffffffffffffffffffffffffffffffffffffff9092168252519081900360200190f35b61019a61049f565b6101fe600480360360208110156101e157600080fd5b503573ffffffffffffffffffffffffffffffffffffffff166104bb565b005b61019a6004803603602081101561021657600080fd5b5035610531565b610225610565565b60408051918252519081900360200190f35b6101fe6004803603602081101561024d57600080fd5b5035610616565b6101fe6004803603602081101561026a57600080fd5b503573ffffffffffffffffffffffffffffffffffffffff1661067d565b610225610766565b61022561076c565b610225610772565b6101fe600480360360208110156102b557600080fd5b5035610778565b6101fe600480360360208110156102d257600080fd5b503573ffffffffffffffffffffffffffffffffffffffff166107df565b610225610852565b610225610858565b6101fe6004803603602081101561031557600080fd5b503573ffffffffffffffffffffffffffffffffffffffff1661085e565b6101fe6004803603602081101561034857600080fd5b5035610907565b61019a61096e565b61019a6004803603604081101561036d57600080fd5b5073ffffffffffffffffffffffffffffffffffffffff8135811691602001351661098a565b6101fe600480360360208110156103a857600080fd5b5035610d8f565b61019a600480360360408110156103c557600080fd5b5073ffffffffffffffffffffffffffffffffffffffff81358116916020013516610df6565b6101fe6004803603602081101561040057600080fd5b503573ffffffffffffffffffffffffffffffffffffffff16610e29565b6101fe6004803603602081101561043357600080fd5b503573ffffffffffffffffffffffffffffffffffffffff16610ed2565b6101fe6004803603602081101561046657600080fd5b503573ffffffffffffffffffffffffffffffffffffffff16610fa2565b60015473ffffffffffffffffffffffffffffffffffffffff1681565b60025473ffffffffffffffffffffffffffffffffffffffff1681565b6104cc60003363ffffffff61104b16565b61051d576040805162461bcd60e51b815260206004820152601460248201527f556e697377617056323a20464f5242494444454e000000000000000000000000604482015290519081900360640190fd5b61052e60008263ffffffff6110cc16565b50565b6004818154811061053e57fe5b60009182526020909120015473ffffffffffffffffffffffffffffffffffffffff16905081565b6040516105746020820161120a565b6020820181038252601f19601f820116604052506040516020018082805190602001908083835b602083106105d857805182527fffffffffffffffffffffffffffffffffffffffffffffffffffffffffffffffe0909201916020918201910161059b565b6001836020036101000a0380198251168184511680821785525050505050509050019150506040516020818303038152906040528051906020012081565b61062760003363ffffffff61104b16565b610678576040805162461bcd60e51b815260206004820152601460248201527f556e697377617056323a20464f5242494444454e000000000000000000000000604482015290519081900360640190fd5b600755565b61068e60003363ffffffff61104b16565b6106df576040805162461bcd60e51b815260206004820152601460248201527f556e697377617056323a20464f5242494444454e000000000000000000000000604482015290519081900360640190fd5b604080517f619d5194000000000000000000000000000000000000000000000000000000008152600060048201819052915173ffffffffffffffffffffffffffffffffffffffff84169263619d5194926024808201939182900301818387803b15801561074b57600080fd5b505af115801561075f573d6000803e3d6000fd5b5050505050565b60075481565b60045490565b60055481565b61078960003363ffffffff61104b16565b6107da576040805162461bcd60e51b815260206004820152601460248201527f556e697377617056323a20464f5242494444454e000000000000000000000000604482015290519081900360640190fd5b600855565b6107f060003363ffffffff61104b16565b610841576040805162461bcd60e51b815260206004820152601460248201527f556e697377617056323a20464f5242494444454e000000000000000000000000604482015290519081900360640190fd5b61052e60008263ffffffff61115e16565b60065481565b60085481565b61086f60003363ffffffff61104b16565b6108c0576040805162461bcd60e51b815260206004820152601460248201527f556e697377617056323a20464f5242494444454e000000000000000000000000604482015290519081900360640190fd5b600280547fffffffffffffffffffffffff00000000000000000000000000000000000000001673ffffffffffffffffffffffffffffffffffffffff92909216919091179055565b61091860003363ffffffff61104b16565b610969576040805162461bcd60e51b815260206004820152601460248201527f556e697377617056323a20464f5242494444454e000000000000000000000000604482015290519081900360640190fd5b600555565b60095473ffffffffffffffffffffffffffffffffffffffff1681565b60008173ffffffffffffffffffffffffffffffffffffffff168373ffffffffffffffffffffffffffffffffffffffff161415610a0d576040805162461bcd60e51b815260206004820152601e60248201527f556e697377617056323a204944454e544943414c5f4144445245535345530000604482015290519081900360640190fd5b6000808373ffffffffffffffffffffffffffffffffffffffff168573ffffffffffffffffffffffffffffffffffffffff1610610a4a578385610a4d565b84845b909250905073ffffffffffffffffffffffffffffffffffffffff8216610aba576040805162461bcd60e51b815260206004820152601760248201527f556e697377617056323a205a45524f5f41444452455353000000000000000000604482015290519081900360640190fd5b73ffffffffffffffffffffffffffffffffffffffff828116600090815260036020908152604080832085851684529091529020541615610b41576040805162461bcd60e51b815260206004820152601660248201527f556e697377617056323a20504149525f45584953545300000000000000000000604482015290519081900360640190fd5b606060405180602001610b539061120a565b6020820181038252601f19601f82011660405250905060008383604051602001808373ffffffffffffffffffffffffffffffffffffffff1673ffffffffffffffffffffffffffffffffffffffff1660601b81526014018273ffffffffffffffffffffffffffffffffffffffff1673ffffffffffffffffffffffffffffffffffffffff1660601b815260140192505050604051602081830303815290604052805190602001209050808251602084016000f5604080517f485cc95500000000000000000000000000000000000000000000000000000000815273ffffffffffffffffffffffffffffffffffffffff8781166004830152868116602483015291519297509087169163485cc9559160448082019260009290919082900301818387803b158015610c8057600080fd5b505af1158015610c94573d6000803e3d6000fd5b5050505073ffffffffffffffffffffffffffffffffffffffff84811660008181526003602081815260408084208987168086529083528185208054978d167fffffffffffffffffffffffff000000000000000000000000000000000000000098891681179091559383528185208686528352818520805488168517905560048054600181018255958190527f8a35acfbc15ff81a39ae7d344fd709f28e8600b4aa8c65c6b64bfe7fe36bd19b90950180549097168417909655925483519283529082015281517f0d3648bd0f6ba80134a33ba9275ac585d9d315f0ad8355cddefde31afa28d0e9929181900390910190a35050505092915050565b610da060003363ffffffff61104b16565b610df1576040805162461bcd60e51b815260206004820152601460248201527f556e697377617056323a20464f5242494444454e000000000000000000000000604482015290519081900360640190fd5b600655565b600360209081526000928352604080842090915290825290205473ffffffffffffffffffffffffffffffffffffffff1681565b610e3a60003363ffffffff61104b16565b610e8b576040805162461bcd60e51b815260206004820152601460248201527f556e697377617056323a20464f5242494444454e000000000000000000000000604482015290519081900360640190fd5b600980547fffffffffffffffffffffffff00000000000000000000000000000000000000001673ffffffffffffffffffffffffffffffffffffffff92909216919091179055565b610ee360003363ffffffff61104b16565b610f34576040805162461bcd60e51b815260206004820152601460248201527f556e697377617056323a20464f5242494444454e000000000000000000000000604482015290519081900360640190fd5b604080517f619d519400000000000000000000000000000000000000000000000000000000815260016004820152905173ffffffffffffffffffffffffffffffffffffffff83169163619d519491602480830192600092919082900301818387803b15801561074b57600080fd5b610fb360003363ffffffff61104b16565b611004576040805162461bcd60e51b815260206004820152601460248201527f556e697377617056323a20464f5242494444454e000000000000000000000000604482015290519081900360640190fd5b600180547fffffffffffffffffffffffff00000000000000000000000000000000000000001673ffffffffffffffffffffffffffffffffffffffff92909216919091179055565b600073ffffffffffffffffffffffffffffffffffffffff821661109f5760405162461bcd60e51b81526004018080602001828103825260228152602001806144506022913960400191505060405180910390fd5b5073ffffffffffffffffffffffffffffffffffffffff166000908152602091909152604090205460ff1690565b6110d6828261104b565b6111115760405162461bcd60e51b815260040180806020018281038252602181526020018061442f6021913960400191505060405180910390fd5b73ffffffffffffffffffffffffffffffffffffffff1660009081526020919091526040902080547fffffffffffffffffffffffffffffffffffffffffffffffffffffffffffffff00169055565b611168828261104b565b156111ba576040805162461bcd60e51b815260206004820152601f60248201527f526f6c65733a206163636f756e7420616c72656164792068617320726f6c6500604482015290519081900360640190fd5b73ffffffffffffffffffffffffffffffffffffffff1660009081526020919091526040902080547fffffffffffffffffffffffffffffffffffffffffffffffffffffffffffffff00166001179055565b613217806112188339019056fe60806040526001600c5534801561001557600080fd5b5060405146908060526131c58239604080519182900360520182208282018252600a8352692ab734b9bbb0b8102b1960b11b6020938401528151808301835260018152603160f81b908401528151808401919091527fbfcc8ef98ffbf7b6c3fec7bf5185b566b9863e35a9d83acd49ad6824b5969738818301527fc89efdaa54c0f20c7adf612882df0950f5a951637e0307cdcb4c672f298b8bc6606082015260808101949094523060a0808601919091528151808603909101815260c09094019052825192019190912060035550600580546001600160a01b031916331790556130c0806101056000396000f3fe608060405234801561001057600080fd5b50600436106101c45760003560e01c80636a627842116100f9578063ba9a7a5611610097578063d21220a711610071578063d21220a714610575578063d505accf1461057d578063dd62ed3e146105ce578063fff6cae9146105fc576101c4565b8063ba9a7a561461053f578063bc25cf7714610547578063c45a01551461056d576101c4565b80637ecebe00116100d35780637ecebe00146104a657806389afcb44146104cc57806395d89b411461050b578063a9059cbb14610513576101c4565b80636a6278421461045257806370a08231146104785780637464fc3d1461049e576101c4565b806330adf81f11610166578063485cc95511610140578063485cc955146103f55780635909c0d5146104235780635a3d54931461042b578063619d519414610433576101c4565b806330adf81f146103c7578063313ce567146103cf5780633644e515146103ed576101c4565b8063095ea7b3116101a2578063095ea7b3146103135780630dfe16811461035357806318160ddd1461037757806323b872dd14610391576101c4565b8063022c0d9f146101c957806306fdde03146102575780630902f1ac146102d4575b600080fd5b610255600480360360808110156101df57600080fd5b8135916020810135916001600160a01b03604083013516919081019060808101606082013564010000000081111561021657600080fd5b82018360208201111561022857600080fd5b8035906020019184600183028401116401000000008311171561024a57600080fd5b509092509050610604565b005b61025f610fb4565b6040805160208082528351818301528351919283929083019185019080838360005b83811015610299578181015183820152602001610281565b50505050905090810190601f1680156102c65780820380516001836020036101000a031916815260200191505b509250505060405180910390f35b6102dc610fed565b604080516dffffffffffffffffffffffffffff948516815292909316602083015263ffffffff168183015290519081900360600190f35b61033f6004803603604081101561032957600080fd5b506001600160a01b038135169060200135611042565b604080519115158252519081900360200190f35b61035b611059565b604080516001600160a01b039092168252519081900360200190f35b61037f611068565b60408051918252519081900360200190f35b61033f600480360360608110156103a757600080fd5b506001600160a01b0381358116916020810135909116906040013561106e565b61037f611126565b6103d761114a565b6040805160ff9092168252519081900360200190f35b61037f61114f565b6102556004803603604081101561040b57600080fd5b506001600160a01b0381358116916020013516611155565b61037f6111fa565b61037f611200565b6102556004803603602081101561044957600080fd5b50351515611206565b61037f6004803603602081101561046857600080fd5b50356001600160a01b031661127d565b61037f6004803603602081101561048e57600080fd5b50356001600160a01b0316611711565b61037f611723565b61037f600480360360208110156104bc57600080fd5b50356001600160a01b0316611729565b6104f2600480360360208110156104e257600080fd5b50356001600160a01b031661173b565b6040805192835260208301919091528051918290030190f35b61025f611ddf565b61033f6004803603604081101561052957600080fd5b506001600160a01b038135169060200135611e18565b61037f611e25565b6102556004803603602081101561055d57600080fd5b50356001600160a01b0316611e2b565b61035b611fed565b61035b611ffc565b610255600480360360e081101561059357600080fd5b506001600160a01b03813581169160208101359091169060408101359060608101359060ff6080820135169060a08101359060c0013561200b565b61037f600480360360408110156105e457600080fd5b506001600160a01b038135811691602001351661226f565b61025561228c565b60008511806106135750600084115b61064e5760405162461bcd60e51b8152600401808060200182810382526025815260200180612fd16025913960400191505060405180910390fd5b600080610659610fed565b5091509150612710600560009054906101000a90046001600160a01b03166001600160a01b03166368bfc4176040518163ffffffff1660e01b815260040160206040518083038186803b1580156106af57600080fd5b505afa1580156106c3573d6000803e3d6000fd5b505050506040513d60208110156106d957600080fd5b50516dffffffffffffffffffffffffffff841602816106f457fe5b048710801561079f5750600554604080517f68bfc4170000000000000000000000000000000000000000000000000000000081529051612710926001600160a01b0316916368bfc417916004808301926020929190829003018186803b15801561075d57600080fd5b505afa158015610771573d6000803e3d6000fd5b505050506040513d602081101561078757600080fd5b50516dffffffffffffffffffffffffffff8316020286105b6107da5760405162461bcd60e51b815260040180806020018281038252602181526020018061301a6021913960400191505060405180910390fd5b60065460009081906001600160a01b0388811691161480159061080b57506007546001600160a01b03888116911614155b61085c576040805162461bcd60e51b815260206004820152601560248201527f556e697377617056323a20494e56414c49445f544f0000000000000000000000604482015290519081900360640190fd5b600554604080517fb3f0067400000000000000000000000000000000000000000000000000000000815290516000926001600160a01b03169163b3f00674916004808301926020929190829003018186803b1580156108ba57600080fd5b505afa1580156108ce573d6000803e3d6000fd5b505050506040513d60208110156108e457600080fd5b505190508915610a1f576109a4600660009054906101000a90046001600160a01b031689612710610995600560009054906101000a90046001600160a01b03166001600160a01b03166378d2429a6040518163ffffffff1660e01b815260040160206040518083038186803b15801561095c57600080fd5b505afa158015610970573d6000803e3d6000fd5b505050506040513d602081101561098657600080fd5b50518f9063ffffffff61243e16565b8161099c57fe5b048d036124aa565b610a1f600660009054906101000a90046001600160a01b031682612710610a12600560009054906101000a90046001600160a01b03166001600160a01b03166378d2429a6040518163ffffffff1660e01b815260040160206040518083038186803b15801561095c57600080fd5b81610a1957fe5b046124aa565b8815610b4957610adb600760009054906101000a90046001600160a01b031689612710610acc600560009054906101000a90046001600160a01b03166001600160a01b03166378d2429a6040518163ffffffff1660e01b815260040160206040518083038186803b158015610a9357600080fd5b505afa158015610aa7573d6000803e3d6000fd5b505050506040513d6020811015610abd57600080fd5b50518e9063ffffffff61243e16565b81610ad357fe5b048c036124aa565b610b49600760009054906101000a90046001600160a01b031682612710610a12600560009054906101000a90046001600160a01b03166001600160a01b03166378d2429a6040518163ffffffff1660e01b815260040160206040518083038186803b158015610a9357600080fd5b8515610cbe57876001600160a01b03166310d1e85c33612710610bb3600560009054906101000a90046001600160a01b03166001600160a01b03166378d2429a6040518163ffffffff1660e01b815260040160206040518083038186803b15801561095c57600080fd5b81610bba57fe5b048d03612710610c11600560009054906101000a90046001600160a01b03166001600160a01b03166378d2429a6040518163ffffffff1660e01b815260040160206040518083038186803b15801561095c57600080fd5b81610c1857fe5b048d038b8b6040518663ffffffff1660e01b815260040180866001600160a01b03166001600160a01b03168152602001858152602001848152602001806020018281038252848482818152602001925080828437600081840152601f19601f8201169050808301925050509650505050505050600060405180830381600087803b158015610ca557600080fd5b505af1158015610cb9573d6000803e3d6000fd5b505050505b600654604080517f70a0823100000000000000000000000000000000000000000000000000000000815230600482015290516001600160a01b03909216916370a0823191602480820192602092909190829003018186803b158015610d2257600080fd5b505afa158015610d36573d6000803e3d6000fd5b505050506040513d6020811015610d4c57600080fd5b5051600754604080517f70a0823100000000000000000000000000000000000000000000000000000000815230600482015290519295506001600160a01b03909116916370a0823191602480820192602092909190829003018186803b158015610db557600080fd5b505afa158015610dc9573d6000803e3d6000fd5b505050506040513d6020811015610ddf57600080fd5b50519150600090506dffffffffffffffffffffffffffff85168a90038311610e08576000610e1e565b89856dffffffffffffffffffffffffffff160383035b9050600089856dffffffffffffffffffffffffffff16038311610e42576000610e58565b89856dffffffffffffffffffffffffffff160383035b90506000821180610e695750600081115b610ea45760405162461bcd60e51b8152600401808060200182810382526024815260200180612ff66024913960400191505060405180910390fd5b6000610ed8610eba84600363ffffffff61243e16565b610ecc876103e863ffffffff61243e16565b9063ffffffff61269016565b90506000610ef0610eba84600363ffffffff61243e16565b9050610f28620f4240610f1c6dffffffffffffffffffffffffffff8b8116908b1663ffffffff61243e16565b9063ffffffff61243e16565b610f38838363ffffffff61243e16565b1015610f8b576040805162461bcd60e51b815260206004820152600c60248201527f556e697377617056323a204b0000000000000000000000000000000000000000604482015290519081900360640190fd5b5050610f99848488886126e8565b610fa73383838e8e8e61298a565b5050505050505050505050565b6040518060400160405280600a81526020017f556e69737761702056320000000000000000000000000000000000000000000081525081565b6008546dffffffffffffffffffffffffffff808216926e0100000000000000000000000000008304909116917c0100000000000000000000000000000000000000000000000000000000900463ffffffff1690565b600061104f338484612af4565b5060015b92915050565b6006546001600160a01b031681565b60005481565b6001600160a01b03831660009081526002602090815260408083203384529091528120547fffffffffffffffffffffffffffffffffffffffffffffffffffffffffffffffff14611111576001600160a01b03841660009081526002602090815260408083203384529091529020546110ec908363ffffffff61269016565b6001600160a01b03851660009081526002602090815260408083203384529091529020555b61111c848484612b56565b5060019392505050565b7f6e71edae12b1b97f4d1f60370fef10105fa2faae0126114a169c64845d6126c981565b601281565b60035481565b6005546001600160a01b031633146111b4576040805162461bcd60e51b815260206004820152601460248201527f556e697377617056323a20464f5242494444454e000000000000000000000000604482015290519081900360640190fd5b600680546001600160a01b039384167fffffffffffffffffffffffff00000000000000000000000000000000000000009182161790915560078054929093169116179055565b60095481565b600a5481565b6005546001600160a01b03163314611265576040805162461bcd60e51b815260206004820152600c60248201527f756e617574686f72697a65640000000000000000000000000000000000000000604482015290519081900360640190fd5b80611271576001611274565b60005b60ff16600c5550565b6000600c546001146112d6576040805162461bcd60e51b815260206004820152601160248201527f556e697377617056323a204c4f434b4544000000000000000000000000000000604482015290519081900360640190fd5b6000600c819055806112e6610fed565b50600654604080517f70a0823100000000000000000000000000000000000000000000000000000000815230600482015290519395509193506000926001600160a01b03909116916370a08231916024808301926020929190829003018186803b15801561135357600080fd5b505afa158015611367573d6000803e3d6000fd5b505050506040513d602081101561137d57600080fd5b5051600754604080517f70a0823100000000000000000000000000000000000000000000000000000000815230600482015290519293506000926001600160a01b03909216916370a0823191602480820192602092909190829003018186803b1580156113e957600080fd5b505afa1580156113fd573d6000803e3d6000fd5b505050506040513d602081101561141357600080fd5b505190506000611439836dffffffffffffffffffffffffffff871663ffffffff61269016565b9050600061145d836dffffffffffffffffffffffffffff871663ffffffff61269016565b9050600061146b8787612c10565b600054909150806114a8576114946103e8610ecc61148f878763ffffffff61243e16565b612d75565b98506114a360006103e8612dc7565b611505565b6115026dffffffffffffffffffffffffffff89166114cc868463ffffffff61243e16565b816114d357fe5b046dffffffffffffffffffffffffffff89166114f5868563ffffffff61243e16565b816114fc57fe5b04612e5d565b98505b600089116115445760405162461bcd60e51b81526004018080602001828103825260288152602001806130636028913960400191505060405180910390fd5b60006127106115d3600560009054906101000a90046001600160a01b03166001600160a01b0316633746d2156040518163ffffffff1660e01b815260040160206040518083038186803b15801561159a57600080fd5b505afa1580156115ae573d6000803e3d6000fd5b505050506040513d60208110156115c457600080fd5b50518c9063ffffffff61243e16565b816115da57fe5b049050611660600560009054906101000a90046001600160a01b03166001600160a01b031663b3f006746040518163ffffffff1660e01b815260040160206040518083038186803b15801561162e57600080fd5b505afa158015611642573d6000803e3d6000fd5b505050506040513d602081101561165857600080fd5b505182612dc7565b61166c8b828c03612dc7565b61167887878b8b6126e8565b82156116ba576008546116b6906dffffffffffffffffffffffffffff808216916e01000000000000000000000000000090041663ffffffff61243e16565b600b555b6040805186815260208101869052808201839052905133917fb4c03061fb5b7fed76389d5af8f2e0ddb09f8c70d1333abbb62582835e10accb919081900360600190a250506001600c555095979650505050505050565b60016020526000908152604090205481565b600b5481565b60046020526000908152604090205481565b600080600c54600114611795576040805162461bcd60e51b815260206004820152601160248201527f556e697377617056323a204c4f434b4544000000000000000000000000000000604482015290519081900360640190fd5b6000600c819055806117a5610fed565b50600654600754604080517f70a0823100000000000000000000000000000000000000000000000000000000815230600482015290519496509294506001600160a01b039182169391169160009184916370a08231916024808301926020929190829003018186803b15801561181a57600080fd5b505afa15801561182e573d6000803e3d6000fd5b505050506040513d602081101561184457600080fd5b5051604080517f70a0823100000000000000000000000000000000000000000000000000000000815230600482015290519192506000916001600160a01b038516916370a08231916024808301926020929190829003018186803b1580156118ab57600080fd5b505afa1580156118bf573d6000803e3d6000fd5b505050506040513d60208110156118d557600080fd5b5051600554604080517f7c52a17b00000000000000000000000000000000000000000000000000000000815290519293506000926127109261198b926001600160a01b0390911691637c52a17b91600480820192602092909190829003018186803b15801561194357600080fd5b505afa158015611957573d6000803e3d6000fd5b505050506040513d602081101561196d57600080fd5b5051306000908152600160205260409020549063ffffffff61243e16565b8161199257fe5b0490506000600560009054906101000a90046001600160a01b03166001600160a01b031663b3f006746040518163ffffffff1660e01b815260040160206040518083038186803b1580156119e557600080fd5b505afa1580156119f9573d6000803e3d6000fd5b505050506040513d6020811015611a0f57600080fd5b50516001600160a01b038c8116911614611a3b5730600090815260016020526040902054829003611a4c565b306000908152600160205260409020545b90506000611a5a8989612c10565b60005490915080611a71848863ffffffff61243e16565b81611a7857fe5b049b5080611a8c848763ffffffff61243e16565b81611a9357fe5b049a5060008c118015611aa6575060008b115b611ae15760405162461bcd60e51b815260040180806020018281038252602881526020018061303b6028913960400191505060405180910390fd5b600560009054906101000a90046001600160a01b03166001600160a01b031663b3f006746040518163ffffffff1660e01b815260040160206040518083038186803b158015611b2f57600080fd5b505afa158015611b43573d6000803e3d6000fd5b505050506040513d6020811015611b5957600080fd5b50516001600160a01b038e8116911614611bf157611bf130600560009054906101000a90046001600160a01b03166001600160a01b031663b3f006746040518163ffffffff1660e01b815260040160206040518083038186803b158015611bbf57600080fd5b505afa158015611bd3573d6000803e3d6000fd5b505050506040513d6020811015611be957600080fd5b505186612b56565b611bfb3084612e75565b611c06888e8e6124aa565b611c11878e8d6124aa565b604080517f70a0823100000000000000000000000000000000000000000000000000000000815230600482015290516001600160a01b038a16916370a08231916024808301926020929190829003018186803b158015611c7057600080fd5b505afa158015611c84573d6000803e3d6000fd5b505050506040513d6020811015611c9a57600080fd5b5051604080517f70a0823100000000000000000000000000000000000000000000000000000000815230600482015290519197506001600160a01b038916916370a0823191602480820192602092909190829003018186803b158015611cff57600080fd5b505afa158015611d13573d6000803e3d6000fd5b505050506040513d6020811015611d2957600080fd5b50519450611d3986868c8c6126e8565b8115611d7b57600854611d77906dffffffffffffffffffffffffffff808216916e01000000000000000000000000000090041663ffffffff61243e16565b600b555b604080518d8152602081018d905280820186905290516001600160a01b038f169133917fa476cebfbe7485684f5578d84d8a64a8afe93a0a2a3047bd6f3e681e108b8f119181900360600190a3505050505050505050506001600c81905550915091565b6040518060400160405280600681526020017f554e492d5632000000000000000000000000000000000000000000000000000081525081565b600061104f338484612b56565b6103e881565b600c54600114611e82576040805162461bcd60e51b815260206004820152601160248201527f556e697377617056323a204c4f434b4544000000000000000000000000000000604482015290519081900360640190fd5b6000600c55600654600754600854604080517f70a0823100000000000000000000000000000000000000000000000000000000815230600482015290516001600160a01b039485169490931692611f519285928792611f4c926dffffffffffffffffffffffffffff169185916370a0823191602480820192602092909190829003018186803b158015611f1457600080fd5b505afa158015611f28573d6000803e3d6000fd5b505050506040513d6020811015611f3e57600080fd5b50519063ffffffff61269016565b6124aa565b600854604080517f70a082310000000000000000000000000000000000000000000000000000000081523060048201529051611fe39284928792611f4c926e01000000000000000000000000000090046dffffffffffffffffffffffffffff16916001600160a01b038616916370a0823191602480820192602092909190829003018186803b158015611f1457600080fd5b50506001600c5550565b6005546001600160a01b031681565b6007546001600160a01b031681565b42841015612060576040805162461bcd60e51b815260206004820152601260248201527f556e697377617056323a20455850495245440000000000000000000000000000604482015290519081900360640190fd5b6003546001600160a01b0380891660008181526004602090815260408083208054600180820190925582517f6e71edae12b1b97f4d1f60370fef10105fa2faae0126114a169c64845d6126c98186015280840196909652958d166060860152608085018c905260a085019590955260c08085018b90528151808603909101815260e0850182528051908301207f19010000000000000000000000000000000000000000000000000000000000006101008601526101028501969096526101228085019690965280518085039096018652610142840180825286519683019690962095839052610162840180825286905260ff89166101828501526101a284018890526101c28401879052519193926101e2808201937fffffffffffffffffffffffffffffffffffffffffffffffffffffffffffffffe081019281900390910190855afa1580156121b4573d6000803e3d6000fd5b50506040517fffffffffffffffffffffffffffffffffffffffffffffffffffffffffffffffe001519150506001600160a01b038116158015906122085750886001600160a01b0316816001600160a01b0316145b612259576040805162461bcd60e51b815260206004820152601c60248201527f556e697377617056323a20494e56414c49445f5349474e415455524500000000604482015290519081900360640190fd5b612264898989612af4565b505050505050505050565b600260209081526000928352604080842090915290825290205481565b600c546001146122e3576040805162461bcd60e51b815260206004820152601160248201527f556e697377617056323a204c4f434b4544000000000000000000000000000000604482015290519081900360640190fd5b6000600c55600654604080517f70a082310000000000000000000000000000000000000000000000000000000081523060048201529051612437926001600160a01b0316916370a08231916024808301926020929190829003018186803b15801561234d57600080fd5b505afa158015612361573d6000803e3d6000fd5b505050506040513d602081101561237757600080fd5b5051600754604080517f70a0823100000000000000000000000000000000000000000000000000000000815230600482015290516001600160a01b03909216916370a0823191602480820192602092909190829003018186803b1580156123dd57600080fd5b505afa1580156123f1573d6000803e3d6000fd5b505050506040513d602081101561240757600080fd5b50516008546dffffffffffffffffffffffffffff808216916e0100000000000000000000000000009004166126e8565b6001600c55565b60008115806124595750508082028282828161245657fe5b04145b611053576040805162461bcd60e51b815260206004820152601460248201527f64732d6d6174682d6d756c2d6f766572666c6f77000000000000000000000000604482015290519081900360640190fd5b604080518082018252601981527f7472616e7366657228616464726573732c75696e74323536290000000000000060209182015281516001600160a01b0385811660248301526044808301869052845180840390910181526064909201845291810180517bffffffffffffffffffffffffffffffffffffffffffffffffffffffff167fa9059cbb000000000000000000000000000000000000000000000000000000001781529251815160009460609489169392918291908083835b602083106125a357805182527fffffffffffffffffffffffffffffffffffffffffffffffffffffffffffffffe09092019160209182019101612566565b6001836020036101000a0380198251168184511680821785525050505050509050019150506000604051808303816000865af19150503d8060008114612605576040519150601f19603f3d011682016040523d82523d6000602084013e61260a565b606091505b5091509150818015612638575080511580612638575080806020019051602081101561263557600080fd5b50515b612689576040805162461bcd60e51b815260206004820152601a60248201527f556e697377617056323a205452414e534645525f4641494c4544000000000000604482015290519081900360640190fd5b5050505050565b80820382811115611053576040805162461bcd60e51b815260206004820152601560248201527f64732d6d6174682d7375622d756e646572666c6f770000000000000000000000604482015290519081900360640190fd5b6dffffffffffffffffffffffffffff841180159061271457506dffffffffffffffffffffffffffff8311155b612765576040805162461bcd60e51b815260206004820152601360248201527f556e697377617056323a204f564552464c4f5700000000000000000000000000604482015290519081900360640190fd5b60085463ffffffff428116917c0100000000000000000000000000000000000000000000000000000000900481168203908116158015906127b557506dffffffffffffffffffffffffffff841615155b80156127d057506dffffffffffffffffffffffffffff831615155b15612880578063ffffffff16612813856127e986612f13565b7bffffffffffffffffffffffffffffffffffffffffffffffffffffffff169063ffffffff612f3716565b600980547bffffffffffffffffffffffffffffffffffffffffffffffffffffffff929092169290920201905563ffffffff8116612853846127e987612f13565b600a80547bffffffffffffffffffffffffffffffffffffffffffffffffffffffff92909216929092020190555b600880547fffffffffffffffffffffffffffffffffffff0000000000000000000000000000166dffffffffffffffffffffffffffff888116919091177fffffffff0000000000000000000000000000ffffffffffffffffffffffffffff166e0100000000000000000000000000008883168102919091177bffffffffffffffffffffffffffffffffffffffffffffffffffffffff167c010000000000000000000000000000000000000000000000000000000063ffffffff871602179283905560408051848416815291909304909116602082015281517f1c411e9a96e071241c2f21f7726b17ae89e3cab4c78be50e062b03a9fffbbad1929181900390910190a1505050505050565b806001600160a01b0316866001600160a01b03167f606ecd02b3e3b4778f8e97b2e03351de14224efaa5fa64e62200afc9395c24998787878760008a11612a6557612710612a58600560009054906101000a90046001600160a01b03166001600160a01b03166378d2429a6040518163ffffffff1660e01b815260040160206040518083038186803b158015612a1f57600080fd5b505afa158015612a33573d6000803e3d6000fd5b505050506040513d6020811015612a4957600080fd5b50518b9063ffffffff61243e16565b81612a5f57fe5b04612ac2565b612710612ab9600560009054906101000a90046001600160a01b03166001600160a01b03166378d2429a6040518163ffffffff1660e01b815260040160206040518083038186803b15801561159a57600080fd5b81612ac057fe5b045b6040805195865260208601949094528484019290925260608401526080830152519081900360a00190a3505050505050565b6001600160a01b03808416600081815260026020908152604080832094871680845294825291829020859055815185815291517f8c5be1e5ebec7d5bd14f71427d1e84f3dd0314c0f7b2291e5b200ac8c7c3b9259281900390910190a3505050565b6001600160a01b038316600090815260016020526040902054612b7f908263ffffffff61269016565b6001600160a01b038085166000908152600160205260408082209390935590841681522054612bb4908263ffffffff612f7816565b6001600160a01b0380841660008181526001602090815260409182902094909455805185815290519193928716927fddf252ad1be2c89b69c2b068fc378daa952ba7f163c4a11628f55a4df523b3ef92918290030190a3505050565b600080600560009054906101000a90046001600160a01b03166001600160a01b031663017e7e586040518163ffffffff1660e01b815260040160206040518083038186803b158015612c6157600080fd5b505afa158015612c75573d6000803e3d6000fd5b505050506040513d6020811015612c8b57600080fd5b5051600b546001600160a01b038216158015945091925090612d61578015612d5c576000612cd561148f6dffffffffffffffffffffffffffff88811690881663ffffffff61243e16565b90506000612ce283612d75565b905080821115612d59576000612d10612d01848463ffffffff61269016565b6000549063ffffffff61243e16565b90506000612d3583612d2986600563ffffffff61243e16565b9063ffffffff612f7816565b90506000818381612d4257fe5b0490508015612d5557612d558782612dc7565b5050505b50505b612d6d565b8015612d6d576000600b555b505092915050565b60006003821115612db8575080600160028204015b81811015612db257809150600281828581612da157fe5b040181612daa57fe5b049050612d8a565b50612dc2565b8115612dc2575060015b919050565b600054612dda908263ffffffff612f7816565b60009081556001600160a01b038316815260016020526040902054612e05908263ffffffff612f7816565b6001600160a01b03831660008181526001602090815260408083209490945583518581529351929391927fddf252ad1be2c89b69c2b068fc378daa952ba7f163c4a11628f55a4df523b3ef9281900390910190a35050565b6000818310612e6c5781612e6e565b825b9392505050565b6001600160a01b038216600090815260016020526040902054612e9e908263ffffffff61269016565b6001600160a01b03831660009081526001602052604081209190915554612ecb908263ffffffff61269016565b60009081556040805183815290516001600160a01b038516917fddf252ad1be2c89b69c2b068fc378daa952ba7f163c4a11628f55a4df523b3ef919081900360200190a35050565b6dffffffffffffffffffffffffffff166e0100000000000000000000000000000290565b60006dffffffffffffffffffffffffffff82167bffffffffffffffffffffffffffffffffffffffffffffffffffffffff841681612f7057fe5b049392505050565b80820182811015611053576040805162461bcd60e51b815260206004820152601460248201527f64732d6d6174682d6164642d6f766572666c6f77000000000000000000000000604482015290519081900360640190fdfe556e697377617056323a20494e53554646494349454e545f4f55545055545f414d4f554e54556e697377617056323a20494e53554646494349454e545f494e5055545f414d4f554e54556e697377617056323a20494e53554646494349454e545f4c4951554944495459556e697377617056323a20494e53554646494349454e545f4c49515549444954595f4255524e4544556e697377617056323a20494e53554646494349454e545f4c49515549444954595f4d494e544544a2646970667358221220ac9d0d8df94ae454a87ac0faf02c702db5840365b00a89481658016d7411564c64736f6c63430006020033454950373132446f6d61696e28737472696e67206e616d652c737472696e672076657273696f6e2c75696e7432353620636861696e49642c6164647265737320766572696679696e67436f6e747261637429526f6c65733a206163636f756e7420646f6573206e6f74206861766520726f6c65526f6c65733a206163636f756e7420697320746865207a65726f2061646472657373a26469706673582212203a8c5d3aceda1b9fdade94b2f7580e9dac8e81ca6ede82da651d9a8d51b6d6d264736f6c63430006020033526f6c65733a206163636f756e7420697320746865207a65726f2061646472657373",
  "linkReferences": {},
  "deployedLinkReferences": {}
}